:020000040800F2
:100000005808002091010008990100089B01000890
:100010009D0100089F010008A101000800000000E8
:10002000000000000000000000000000A301000824
:10003000A501000800000000A70100083110000819
:10004000AB010008AB010008AB0100081D0D000862
:10005000AB010008AB010008AB010008AB010008D0
:10006000AB010008AB010008AB010008AB010008C0
:10007000AB010008AB010008AB010008AB010008B0
:10008000AB010008AB010008AB010008AB010008A0
:10009000AB010008AB010008AB010008AB01000890
:1000A000AB010008AB010008AB010008AB01000880
:1000B000AB010008AB01000875120008AB01000895
:1000C000AB010008AB010008AB010008AB01000860
:1000D000AB0100085D160008AB010008AB01000889
:1000E000AB010008AB010008AB01000800F002F80A
:1000F00000F03FF80AA090E8000C82448344AAF183
:100100000107DA4501D100F034F8AFF2090EBAE880
:100110000F0013F0010F18BFFB1A43F0010318473B
:100120003C2400005C240000103A24BF78C878C149
:10013000FAD8520724BF30C830C144BF04680C60ED
:10014000704700000023002400250026103A28BF35
:1001500078C1FBD8520728BF30C148BF0B60704739
:10016000642900F07780002070471FB51FBD10B5CF
:1001700010BD00F037F91146FFF7F7FF01F0FEFB65
:1001800000F055F903B4FFF7F2FF03BC01F0D5FB13
:100190000948804709480047FEE7FEE7FEE7FEE71B
:1001A000FEE7FEE7FEE7FEE7FEE7FEE70448054957
:1001B000054A064B7047000039100008ED000008A2
:1001C000580200205808002058040020580400203D
:1001D000704700000FB4044910B503AA029800F05C
:1001E000D3F810BC5DF814FB100000202DE9F0419D
:1001F0000E460446002020622046E168884730B35E
:10020000252805D0D4E901219047206A401CF2E757
:10021000E168204600278847050018D0A5F1410075
:10022000192802D820354FF4006732462946204667
:100230002760FFF795FF40B1012804D0F61D26F096
:1002400007060836D8E7361DD6E72846DAE7206ADB
:10025000BDE8F0812DE9F0410646002410687529BB
:10026000314616A510D0AFF30080002802DA4042D4
:1002700013A507E031688A0701D512A502E04907F6
:1002800004D511A5012401E0AFF3008000210A226A
:1002900006F1240709E0B0FBF2FCB0FBF2F302FB2D
:1002A0001C00303078541846491C0028F3D12346EE
:1002B0002A463046BDE8F04100F00CB800000000CE
:1002C0002D0000002B000000200000007047704748
:1002D000704770472DE9F0470D469946924604460F
:1002E00000F124080168880604D5E06921F01001B6
:1002F000216000E00120A84201DD471B00E000274B
:10030000A1697A1902EB0900081AA0612078C006D9
:1003100002D42046AFF30080002608E0D4E9012192
:100320001AF806009047206A401C761C20624E4551
:10033000F4DB2078C0060AD52046AFF3008006E043
:10034000D4E9012130209047206A401C2062381EE9
:10035000A7F10107F4DC07E0D4E9012118F8050052
:100360009047206A401C2062281EA5F10105F3DC9D
:100370002046AFF300802078000602D50220BDE8B9
:10038000F0870120FBE70000074B70B50D467B446A
:1003900000F011F80446284600F020F810B14FF0A4
:1003A000FF3070BD204670BDCF15000001694A1CAA
:1003B00002610878704700B58FB0CDE901310021A6
:1003C000059105497944CDE9031011466846FFF7C8
:1003D0000DFF0FB000BD0000E5FFFFFF007B00F048
:1003E00080007047754600F02BF8AE460500694660
:1003F000534620F00700854618B020B5FFF7D6FE1B
:10040000BDE820404FF000064FF000074FF0000815
:100410004FF0000B21F00701AC46ACE8C009ACE896
:10042000C009ACE8C009ACE8C0098D46704710B5FA
:100430000446AFF300802046BDE81040FFF7A2BE9F
:1004400000487047F40100202DE9F04102460025E4
:100450000026002000230024002791F803C00CF0A0
:100460000F0591F803C00CF0100CBCF1000F03D085
:1004700091F802C04CEA050591F800C0BCF1000FEC
:1004800031D0146800202BE04FF0010C0CFA00F37F
:10049000B1F800C00CEA03069E4220D183004FF061
:1004A0000F0C0CFA03F7BC4305FA03FC4CEA0404F6
:1004B00091F803C0BCF1280F06D14FF0010C0CFAE3
:1004C00000FCC2F814C00AE091F803C0BCF1480F68
:1004D00005D14FF0010C0CFA00FCC2F810C0401C12
:1004E0000828D1D31460B1F800C0BCF1FF0F34DD8F
:1004F000546800202EE000F1080C4FF0010808FAC3
:100500000CF3B1F800C00CEA03069E4221D183002F
:100510004FF00F0C0CFA03F7BC4305FA03FC4CEA4E
:10052000040491F803C0BCF1280F05D100F1080CB8
:1005300008FA0CF8C2F8148091F803C0BCF1480F17
:1005400007D100F1080C4FF0010808FA0CF8C2F8C6
:100550001080401C0828CED35460BDE8F081000014
:10056000F0B50A46002300240021002500F00046D3
:10057000B6F1004F02D11D4EF16901E01B4E7168CA
:10058000C0F3034583B200F44016B6F5401F08D10E
:1005900021F07061154E766826F07066134F7E600C
:1005A00012E000F48016B6F5801F06D1032606FA85
:1005B00005F4A14341F0706106E0460D360103FAEF
:1005C00006F6B14341F0706122B1460D360103FADF
:1005D00006F6314300F00046B6F1004F02D1034E5B
:1005E000F16101E0014E7160F0BD000000000140CA
:1005F00041617047016170470146CA1701EB927271
:100600009210A1EB820292B9642091FBF0F200FB00
:10061000121050B94FF4C87091FBF0F200FB1210A9
:1006200008B9012070470020FCE70120FAE700200C
:10063000F8E7000008B50121102000F003FA4FF49C
:100640000050ADF8000010208DF8030003208DF855
:10065000020069460448FFF7F7FE4FF400510248D4
:10066000FFF7C8FF08BD0000001001401CB511A134
:1006700003C9CDE90001082000F006FC0522694607
:10068000302000F00BF905226946102000F0B4F884
:10069000002406E01DF80400A52800D003E0601C3B
:1006A000C4B2052CF6DB00BF052C01D001201CBD17
:1006B0000020FCE7A5A5A5A5A500000000B587B012
:1006C00001210C2000F0BEF94FF48050ADF8180065
:1006D00010208DF81B0003208DF81A0006A92B4866
:1006E000FFF7B2FE4FF48070ADF8180006A9284855
:1006F000FFF7AAFE4FF40070ADF8180028208DF81F
:100700001B0006A92248FFF79FFE4FF480511F48A7
:10071000FFF76EFF4FF480711D48FFF769FF4FF43C
:1007200000711B48FFF764FF00F03AFB00211948F5
:1007300000F0BEFB0020ADF804004FF48270ADF86D
:1007400006000020ADF80800ADF80A00ADF80C0076
:100750004FF40070ADF80E001820ADF81000002026
:10076000ADF812000720ADF8140001A9094800F007
:10077000B9FB0121074800F09BFB002006490860F7
:1007800001200649C1F8B00107B000BD000C0140CE
:100790000008014000380040A001214200802142B1
:1007A00010B5002011490860052211492A2000F0E7
:1007B00075F80121212000F08FF80121222000F09E
:1007C0008BF82821252000F087F82021312000F027
:1007D00083F80F21262000F07FF80F21202000F061
:1007E0007BF801200349C1F8A00110BDA0012142FE
:1007F00057250008000021422DE9F04107460D462B
:10080000164600200A490860384600F013FB80466F
:10081000002405E0FF2000F00DFB2855601CC4B249
:10082000B442F7DB0120024908604046BDE8F08190
:10083000B081214270B50446002007490860204677
:1008400000F0F8FAFF2000F0F5FA05460120034910
:10085000C1F8B001284670BDB0812142008021421C
:1008600070B50446102000F00FFB0720FFF7E2FFF1
:1008700005462946272000F02FF805F0400050B12A
:10088000202221466120FFF7B7FFFF21E22000F080
:1008900023F8002070BD0120FCE700002DE9F041A5
:1008A00007460C46154600200A490860384600F005
:1008B000C1FA8046002605E014F8010B00F0BAFAF0
:1008C000701CC6B2AE42F7DB012002490860404608
:1008D000BDE8F081B081214270B505460C4600208C
:1008E00007490860284600F0A5FA0646204600F0B1
:1008F000A1FA01200349C1F8B001304670BD0000E3
:10090000B08121420080214270B5002100230F22D6
:10091000C47804B3154C246804F4E064C4F5E064BE
:10092000210AC1F10403CA40447804FA03F184782F
:100930001440214309010E4C0678A155047804F0B7
:100940001F050124AC4005786D11AD0005F1E025CF
:10095000C5F8004109E0047804F01F050124AC400B
:10096000044D0678761145F8264070BD0CED00E088
:1009700000E400E080E100E002490143024A116026
:10098000704700000000FA050CED00E008B50121F9
:10099000042000F057F803208DF802001020ADF875
:1009A00000008DF8030069460348FFF74DFD102154
:1009B0000148FFF71FFE08BD0008014040F2DC506F
:1009C0000E49088048804FF47A70888040F2DC50ED
:1009D000C88004200A4908800BE040F2DC50074937
:1009E000074A128821F8120005480088401C044973
:1009F0000880034800880828EFDB70474800002083
:100A00000200002029B1064AD2690243044BDA6190
:100A100004E0034AD2698243014BDA617047000067
:100A20000010024029B1064A12690243044B1A61C0
:100A300004E0034A12698243014B1A6170470000C7
:100A40000010024029B1064A92690243044B9A61A0
:100A500004E0034A92698243014B9A6170470000A7
:100A60000010024029B1064AD2680243044BDA6002
:100A700004E0034AD2688243014BDA607047000009
:100A80000010024030B500210022002400232D4D2B
:100A90006D6805F00C0121B1042905D0082923D186
:100AA00005E0294D056022E0274D05601FE0254D3A
:100AB0006D6805F47012234D6D6805F480340225CD
:100AC00005EB92421CB9214D554305600BE01D4DCD
:100AD0006D6805F400351DB11C4D5543056002E0FD
:100AE000194D5543056002E0174D056000BF00BF7A
:100AF000144D6D6805F0F0010909154D6B5C056832
:100B0000DD4045600F4D6D6805F4E061090A104D48
:100B10006B5C4568DD4085600A4D6D6805F4605189
:100B2000C90A0B4D6B5C4568DD40C560054D6D68BD
:100B300005F44041890B074D6B5CC568B5FBF3F5C7
:100B4000056130BD0010024000127A0000093D002E
:100B50003100002041000020024909888143014AF8
:100B6000118070470428004070B50026002400253D
:100B700000F07CF806463948B6FBF0F438480088A7
:100B8000A0423CD036490C8040F2B27510E02846B5
:100B9000FFF732FD40B1B4F5B77F02D3A4F5B774C7
:100BA00004E0681C85B206E0A4F26D14681C85B2EE
:100BB000B4F5B67FEBD800BF2A488580002516E043
:100BC00028498888FFF718FD30B1012D04D11D2C6C
:100BD00001D31D3C09E00CE02348405DA04203D84E
:100BE0002148405D241A00E003E0681C85B21C2CFB
:100BF000E6D200BF681C1B498871601CC871174889
:100C0000B6FBF0F100FB11641649CC704FF4616043
:100C1000B4FBF0F008704FF46160B4FBF0F100FB3E
:100C200011403C21B0FBF1F00E4948704FF4616077
:100C3000B4FBF0F100FB11403C21B0FBF1F201FBF1
:100C40001200084988700B46DA799979988800F083
:100C500029F804490872002070BD0000805101008D
:100C6000160000208A0100204625000800210348C4
:100C70000188001F008841EA004070471C2800409E
:100C800001460020064A12880A40D0B2044A121FC8
:100C900012880A4012B108B1012000E0002070471C
:100CA00004280040F0B503460C461546642093FB2B
:100CB000F0F0C6B2642093FBF0F700FB1730C1B22E
:100CC000132E02DD01F16400C1B20846CF1701EB1B
:100CD000977701EBA707BAB2072092FBF0F700FB6A
:100CE000172082B25719601EDFF82CC01CF80000D4
:100CF000384482B2CF1701EB9777BF10A1EB87077B
:100D00001FB9032C01DA501E82B2072092FBF0F7C4
:100D100000FB1720C0B2F0BD3A2500080EB5012037
:100D2000FFF7AEFF08B1FFF71FFF0220FFF7A8FF94
:100D3000A0B10220FFF710FFFFF716FF0A488078E6
:100D400009494978084A1278CDE9002102900648FD
:100D5000C3798279818805A0FFF73CFA0520FFF767
:100D6000FBFE00F013F80EBD8A010020416C617299
:100D70006D2054696D653A25642D25642D25642008
:100D800025643A25643A25640A00000000BF034840
:100D9000008800F020000028F9D0704704280040A7
:100DA00000B587B001210820FFF74CFE0121880320
:100DB000FFF728FE4FF46040ADF8180018208DF8BA
:100DC0001B0003208DF81A0006A91848FFF73CFB0A
:100DD0004FF460411548FFF70DFC0020ADF804000A
:100DE0004FF48270ADF806000020ADF80800022034
:100DF000ADF80A000120ADF80C004002ADF80E007D
:100E00003820ADF810000020ADF812000720ADF832
:100E1000140001A9064800F065F80121044800F01B
:100E200047F8FF2000F006F807B000BD000C0140B5
:100E30000038004070B50546002405E0601CC4B2CF
:100E4000C82C01DD002070BD02210E4800F03CF8E6
:100E50000028F3D029460B4800F042F8002405E0B2
:100E6000601CC4B2C82C01DD0020ECE7012105485C
:100E700000F02AF80028F3D0024800F02EF8C0B2A3
:100E8000E1E700000038004010B50446074800883C
:100E90004FF6C7710840054908800846008820437E
:100EA00008800121014800F003F810BD003800401F
:100EB00021B1028842F04002028004E002884FF62D
:100EC000BF731A40028070470246002013890B400E
:100ED0000BB1012000E0002070470146888970476F
:100EE0008181704710B50022028802F441520B88BC
:100EF0004C8823438C882343CC8823430C89234389
:100F00004C8923438C892343CC8923431A43028091
:100F1000838B4FF2FF74234083830B8A038210BDBF
:100F200010B500F001F810BD0CB500200190009044
:100F30003348006840F480303149086000BF3048D1
:100F4000006800F4003000900198401C0190009867
:100F500018B90198B0F5A06FF1D12948006800F4E4
:100F6000003010B10120009001E0002000900098B6
:100F7000012843D12348006840F01000214908604F
:100F80000846006820F0030008600846006840F04A
:100F9000020008601A4840681949486008464068DD
:100FA00048600846406840F48060486008464068F1
:100FB00020F47C1048600846406840F4E81048601F
:100FC0000846006840F08070086000BF0C48006868
:100FD00000F000700028F9D00948406820F00300B4
:100FE000074948600846406840F00200486000BF7A
:100FF0000348406800F00C000828F9D10CBD00003F
:101000000010024000200240042808D14FF0E021E7
:10101000096941F004014FF0E022116107E04FF04F
:10102000E021096921F004014FF0E02211617047CD
:1010300010B500F017FE10BD10B51348006840F061
:1010400001001149086008464068104908400E49EF
:101050004860084600680E4908400B490860084689
:10106000006820F4802008600846406820F4FE00F4
:1010700048604FF41F008860FFF752FF4FF0006098
:101080000449086010BD0000001002400000FFF895
:10109000FFFFF6FE08ED00E030B589B005460C46CE
:1010A00001210846FFF7AEFC01210420FFF7CAFC2E
:1010B0000F20ADF8200018208DF8230003208DF8B4
:1010C000220008A92148FFF7BFF9ADF81850ADF884
:1010D00014400020ADF81A00ADF8160005A94FF035
:1010E000804000F069FA6020ADF804000120ADF8FE
:1010F00006000020ADF80C0001A94FF0804000F080
:10110000F7F801A94FF0804000F048F901A94FF02D
:10111000804000F0A3F901A94FF0804000F0F8F9F9
:101120000821C80600F030F90821C80600F088F947
:101130000821C80600F0E2F90821C80600F026FAE6
:101140000121880700F0ADF809B030BD000801406A
:1011500030B589B005460C4601210220FFF752FC4C
:1011600001210C20FFF76EFCC020ADF820001820F4
:101170008DF8230003208DF8220008A92248FFF7EC
:1011800063F90320ADF8200008A92048FFF75CF9B7
:10119000ADF81850ADF814400020ADF81A00ADF8C5
:1011A000160005A91A4800F007FA6020ADF80400FF
:1011B0000120ADF806000020ADF80C0001A914488C
:1011C00000F096F801A9124800F0E8F801A91048CB
:1011D00000F044F901A90E4800F09AF908210C48E2
:1011E00000F0D2F808210A4800F02AF9082108483E
:1011F00000F084F90821064800F0C8F901210448EC
:1012000000F04FF809B030BD00080140000C01406B
:10121000000400407FB505460C4601210420FFF77D
:10122000F1FBADF80850ADF804400020ADF8060021
:10123000ADF80A00012211460D4800F04FF801A94F
:101240000B4800F0B9F91E208DF8000000208DF841
:10125000010003208DF8020001208DF8030068468C
:10126000FFF752FB0121024800F01BF87FBD000090
:101270000008004010B50121064800F01EF840B1FA
:101280000121044800F00AF803480068401C0249A4
:10129000086010BD0008004018000020CA43028208
:1012A000704721B1028842F00102028004E0028806
:1012B0004FF6FE731A400280704730B50246002098
:1012C00000230024158A05EA0103958905EA010433
:1012D00013B10CB1012000E0002030BD1AB18389A8
:1012E0000B43838102E083898B4383817047000035
:1012F00070B5002400220023058C4FF6FE763540A1
:101300000584028C8388048B4FF68F752C40B51EA4
:101310002C400D882C43751E2A400D892A434D8888
:101320002A43144DA8420BD0134DA84208D0134DA8
:10133000A84205D0124DA84202D0124DA84213D1A6
:101340004FF6F7752A404D892A434FF6FB752A4020
:101350008D882A434FF6FF652B404FF6FF552B40F3
:101360008D892B43CD892B4383800483CD8885864B
:10137000028470BD002C0140003401400040014057
:1013800000440140004801400A460021018B4FF60D
:10139000F7731940114301837047000070B50024B2
:1013A00000220023058C4FF6EF7635400584028C31
:1013B0008388048B48F6FF752C404FF6FF452C4080
:1013C0000D884FF6FF7606EA05252C434FF6DF75AC
:1013D0002A400D8906EA05152A434D8806EA0515B7
:1013E0002A43154DA84202D0144DA8421DD14FF6F4
:1013F0007F752A404D894FF6FF7606EA05152A4388
:101400004FF6BF752A408D8806EA05152A434FF628
:10141000FF352B404FF2FF752B408D8906EA85057D
:101420002B43CD8906EA85052B4383800483CD8831
:101430000587028470BD0000002C0140003401408B
:101440000A460021018B4FF2FF7319404FF6FF73DC
:1014500003EA0223194301837047000070B500249A
:1014600000220023058C4FF6FF6635400584028C70
:101470008388848B4FF68F752C404FF6FC752C407B
:101480000D882C434FF6FF552A400D894FF6FF7605
:1014900006EA05252A434D8806EA05252A43154D07
:1014A000A84202D0144DA8421DD14FF2FF752A4028
:1014B0004D894FF6FF7606EA05252A434FF6FF359C
:1014C0002A408D8806EA05252A434EF6FF752B40F3
:1014D0004DF6FF752B408D8906EA05152B43CD8906
:1014E00006EA05152B4383808483CD888587028493
:1014F00070BD0000002C0140003401400A4600216C
:10150000818B4FF6F77319401143818370470000B8
:1015100070B5002200230024058C4EF6FF7635407E
:101520000584038C8488828B48F6FF752A404FF629
:10153000FF452A400D884FF6FF7606EA05252A4327
:101540004DF6FF752B400D8906EA05352B434D8876
:1015500006EA05352B430B4DA84202D00A4DA8429E
:1015600008D14BF6FF752C408D894FF6FF7606EAC1
:1015700085152C4384808283CD88A0F84050038455
:1015800070BD0000002C0140003401400A460021DB
:10159000818B4FF2FF7319404FF6FF7303EA02236A
:1015A000194381837047818670470187704781871F
:1015B0007047A0F840107047002202881D4B9842E7
:1015C0000ED01D4B98420BD0B0F1804F08D01B4B72
:1015D000984205D01A4B984202D01A4B984204D137
:1015E0004FF68F731A404B881A43174B984207D017
:1015F000164B984204D04FF6FF431A40CB881A434B
:1016000002808B8883850B8803850A4B98420BD018
:10161000094B984208D00E4B984205D00D4B98428A
:1016200002D00D4B984201D10B7A038601238382AD
:1016300070470000002C01400034014000040040CD
:1016400000080040000C0040001000400014004062
:1016500000400140004401400048014010B540F204
:1016600025511D4800F0A5F810B31B4800F05CF9A7
:10167000C4B21A48008800F40040C8B9174800886E
:1016800000F4804060B10A2C03D000201349088088
:1016900020E01248008840F400401049088019E01A
:1016A0000D2C06D10D48008840F480400B4908807D
:1016B00010E00A480088C0F30D0009490C5407489F
:1016C0000088401C0549088008460088C72801DDBD
:1016D0000020088010BD00000038014014000020E8
:1016E000C100002021B1828942F40052828104E0CD
:1016F00082894DF6FF731A408281704710B5044607
:101700002048844209D101218803FFF7ABF9002169
:101710004FF48040FFF7A6F932E01B48844209D11C
:1017200001214804FFF77EF900214FF40030FFF754
:1017300079F925E01548844209D101218804FFF791
:1017400071F900214FF48020FFF76CF918E0104880
:10175000844209D10121C804FFF764F900214FF444
:101760000020FFF75FF90BE00A48844208D101210D
:101770000805FFF757F900214FF48010FFF752F9E1
:1017800010BD000000380140004400400048004007
:10179000004C00400050004002460020B1F5007FA0
:1017A00000D100BF13880B400BB1012000E00020E6
:1017B000704770B50246002400230025002040F643
:1017C0006A16B14200D100BFC1F3421501F01F03F8
:1017D000012606FA03F3012D02D19689334006E073
:1017E000022D02D1168A334001E0968A33400C1252
:1017F000012606FA04F41688344013B10CB1012016
:1018000000E0002070BDF0B503460024002600254E
:10181000002040F66A17B94200D100BF1846C1F354
:10182000421401F01F06012707FA06F5012C01D129
:101830000C3004E0022C01D1103000E014301AB159
:1018400007682F43076002E00768AF430760F0BDF9
:101850002DE9F04786B005460E460024A24600BF9B
:10186000A1460027B08900B100BF2F462C8A4CF654
:10187000FF700440F08804432C82AC894EF6F310CC
:101880000440B08831890843718908430443AC811E
:10189000AC8A4FF6FF400440B0890443AC8201A8F3
:1018A000FFF7F0F81F48874202D1DDF810A001E0F1
:1018B000DDF80CA0A88900F4004040B10AEBCA0092
:1018C00000EB0A1031684900B0FBF1F807E00AEBC1
:1018D000CA0000EB0A1031688900B0FBF1F86420FF
:1018E000B8FBF0F004012009642101FB1089A889EC
:1018F00000F4004040B1322000EBC900B0FBF1F031
:1019000000F00700044308E0322000EB09106421D6
:10191000B0FBF1F000F00F0004432C8106B0BDE8ED
:10192000F08700000038014001468888C0F30800B5
:101930007047C1F308028280704700BF70470021E2
:1019400007E042F6E06100BF0A1EA1F1010399B26F
:10195000FAD1021EA0F1010398B2F2D17047000043
:1019600000BF054A128802F04002002AF9D0C2B234
:10197000014B1B1D1A80704700380140FFF71EF80D
:101980004FF4A060FEF7F8FF944800F0E7FA472113
:1019900044F61F60FFF7DCFB472144F61F60FFF7AA
:1019A0007BFB47210920FFF735FCFEF7EFFF42F2F2
:1019B000107000F0A1FAFEF73DFEFEF77FFE02E098
:1019C000C820FFF7BCFFFEF751FE0028F8D1FEF754
:1019D000E7FE02E18248FEF743FF002872D1814909
:1019E00008801DE07E487F490988405C08B90120D5
:1019F00000E000207A4A7B490988491C515C09B9FA
:101A0000012100E00021084028B176480088801CB0
:101A10007549088008E073480088401C71490880B7
:101A2000704800881028DDDB00BF00206D49088069
:101A300027E06B496C480088401C085C6A4A1288A1
:101A4000895C40EA01216948664A128820F8121030
:101A50006449098830F8110048B16448614909882F
:101A600030F8110062495F4A128821F812005E487E
:101A70000088801C5C4908805A480088401C5949ED
:101A80000880584800880828D3DB0820554908807A
:101A90000BE040F2DC515648524A128820F81210EE
:101AA00050480088401C4F4908804E480088102844
:101AB000EFDB00204F4908704F4908604F4800682D
:101AC0004F4908604D4800684E490968884227D947
:101AD00000234848027846494B4800F027F9002087
:101AE0004049088012E048483E4A1288815C4748D5
:101AF000FFF71FFF00BF40214448FFF74DFE0128BC
:101B0000F9D138480088401C36490880354800889B
:101B10001928E8DB3948006800F57A70394908600F
:101B20003648006836490968401A394988420FD951
:101B30003148006808B9012000E000202E49086003
:101B400001202C490870FEF739FFC820FFF7F7FE87
:101B500000202449088010E025482249098830F8EF
:101B6000110000EBC0002B491E4A128841F82200E8
:101B70001C480088401C1B4908801A480088082817
:101B8000EADB1B4801884FF08040FFF70CFD184846
:101B900041884FF08040FFF708FD154881884FF0DD
:101BA0008040FFF704FD1248C1884FF08040FFF7E6
:101BB00000FD0F4801891848FFF7F5FC0C484189E2
:101BC0001548FFF7F2FC0A4881891348FFF7EFFC3C
:101BD0000748C1891048FFF7ECFCFBE6A08601002E
:101BE000A100002002000020040000206800002066
:101BF0004800002000000020B4012242180000200C
:101C0000080000200C00002088000020003801405F
:101C1000400D0300D4010020000400402DE9FC5FCA
:101C200006460F4614461D46DDF8308039462046EC
:101C300000F00EFC29460190404600F009FC834666
:101C40003946304600F004FC5946009000F034FB61
:101C50008246019900F03EFA8146294600F0D8F903
:101C6000BDE8FC9F10B500242A480078A8B941F2CD
:101C7000941000F041F92848D0E9001041F2941383
:101C8000C91840F10000244AC2E90010012021498E
:101C900008700020214908603AE0214800780828AF
:101CA00024DA20481E49097850F8210041F29411A5
:101CB000884201D20C4607E01A481949097850F8C1
:101CC0002100A0F58854943C204600F015F91248F4
:101CD000D0E90020121940F100000F49C1E90020AD
:101CE0000F480078401C0E4908700BE00A4909684B
:101CF0000D4A501A00F000F90020074A10605060A9
:101D00000749087000200349087001200349086052
:101D100010BD00002000002028000020900121427A
:101D200030000020D401002020BF02002DE9F84F30
:101D300004460F4690469946002614E037F81600F0
:101D400000F0A6FA83466748674B684A68490090E6
:101D50005846FFF763FF824600F07EFA654941F876
:101D60002600701CC6B2102EE8DB0025B8F1000F6B
:101D700001D045F00405B9F1000F01D045F0080588
:101D80000F2020705B48007860705A480088C0F3CC
:101D900002205849097940EAC100A070554880885E
:101DA000C0F345105349097A40EA8110E070514868
:101DB0000089C0F3870020714E480089C0F380205D
:101DC0004C49097B40EA410060714A488089C0F370
:101DD000C3104849097C40EA0110A0714548008AB7
:101DE000C0F306104349097D40EAC110E071414843
:101DF000808AC0F3470020723E48808AC0F34120A9
:101E00003C49097E40EA810060723A48008BC0F389
:101E100084103849097F40EA4110A0723548808B10
:101E2000C0F3C700E072334890F8200020733148B7
:101E3000008CC0F302202F4991F8241040EAC10021
:101E400060732C48808CC0F345102A4991F8281003
:101E500040EA8110A0732748008DC0F38700E0732B
:101E60002448008DC0F38020224991F82C1040EACC
:101E7000410020741F48808DC0F3C3101D4991F8A4
:101E8000301040EA011060741A48008EC0F306104A
:101E9000184991F8341040EAC110A0741548808E9A
:101EA000C0F34700E0741348808EC0F3412011490D
:101EB00091F8381040EA810020750E48008FC0F379
:101EC00084100C4991F83C1040EA411060750948B3
:101ED000808FC0F3C700A075E57500202076BDE8AF
:101EE000F88F00000060E24400002D430000FA4437
:101EF00000007A449401002070B504462146481E33
:101F0000B0F1807F00D31BE0481E4FF0E02250610B
:101F100050170F22002804DB13071D0E0D4B1D5414
:101F200006E013071E0E0C4B00F00F052D1F5E552B
:101F300000BF00204FF0E02290610720106100BF39
:101F40006FF00400FFF760F800204FF0E021886197
:101F500070BD000000E400E018ED00E010B586B0B0
:101F60000446012144F20900FEF76CFD0121042022
:101F7000FEF7F6FA2448FFF7C1FB4020ADF8140045
:101F800003208DF8160018208DF8170005A91F48AA
:101F9000FEF75AFA8020ADF8140004208DF81700DF
:101FA00005A91A48FEF750FA01944FF48050ADF895
:101FB00008004000ADF80A00C010ADF80C00002089
:101FC000ADF810000C20ADF80E0001A90E48FFF787
:101FD0003FFC25208DF8000003208DF801008DF8CE
:101FE000020001208DF803006846FEF78DFC0122F7
:101FF00040F225510448FFF706FC01210248FFF793
:1020000071FB06B010BD000000380140000C01401B
:1020100090EA010F48BF81F0004100F12082421A8E
:102020003CBF801A89184FEAD0524FF07F4C1CEA0F
:10203000410FA2EBD15318BF9CEA026F00F03B8026
:102040004FF0004C4CEA00204CEA012121FA03FC3D
:1020500010EB0C0C1ED202F1FF325FEA1C2040EBA9
:10206000C25038BF70471CF07F0F4FEA400C18BFBA
:10207000BCF17F4F38BF7047C3F12003994008BFC0
:1020800020F00100BCF17F4F38BF7047A0F1C04085
:1020900000F0D9B94FEA3C00000A40EBC25028BF1B
:1020A0001CF0FF0F4FEA400CE6D018BFBCF17F4F89
:1020B00038BF7047EAE79CEA026F05D010EA5C0F70
:1020C00008BF00F00040704710B500F076F900BF7F
:1020D00064FBBE3E4FF47F0C1CEAD0121EBF1CEA0C
:1020E000D11392EA0C0F93EA0C0F00F0858090EA6E
:1020F000010F48BF42F4807240F4000C41F400002C
:102100002CF07F4120F07F4000B58142A2EB03021A
:102110000FF2081CACEB504EC0F100009EF800E03E
:102120004FEA4E0E00FB0EFC38BF49004FEA2C1C54
:1021300002F5FA020CFB0EF34FEACE1E4FEA112C09
:102140004FEAC1210EEB635E42EB22420EFB0CFC18
:102150004FEA1C5300FB03114FEA112C4FEA0131E7
:102160000EFB0CFC4FEADC4C00FB0C11C14228BFFB
:1021700009184CEB03335DF804EB10EB410143EB22
:10218000C250B2F57C0F38BF704729D512F0F00F5E
:102190001CBF00F1C04000F0004070470081828306
:1021A0008485868788898B8C8D8E8F919293959666
:1021B00097999A9C9D9FA0A2A3A5A7A8AAACAEB0F0
:1021C000B2B3B5B7B9BCBEC0C2C5C7C9CCCED1D4F5
:1021D000D7D9DCDFE2E6E9ECF0F3F7FAFE00000025
:1021E0004FEA400C0CF1807CBCF17E4F28BF704759
:1021F000B0F1C04000F027B990EA010F0CEAD1130A
:1022000048BF42F48072624538BF634507D213F479
:102210007F0F16D080EA010000F00040704710B533
:1022200000F0CBF8097EFC3E00F005B880EA010022
:1022300000F00040704780EA010000F0004000F02C
:1022400002B912F47F0F04BF0248704780EA010010
:1022500000F0F9B80000C07F41000B0ED3F19E02E0
:1022600008D950F400034FEA032323FA02F048BFD1
:102270004042704710B500F0A0F800BF499224809A
:10228000002070476FF0004282EA20007047000093
:10229000B0FA80F310FA03F2C3F19D030AD0D90516
:1022A00001EB1220530638BF704700F1010008BF50
:1022B00020F00100704700004FF47F0C1CEAD012A0
:1022C0001EBF1CEAD11392EA0C0F93EA0C0F00F028
:1022D000478090EA010F48BF42F480724FF0004CF3
:1022E0004CEA00204CEA012102EB0302A0FB01139F
:1022F000A2F50002002918BF43F001035B0028BFCC
:102300004FEA330342EB22425FEA132C4CEBC250FC
:102310002EBFBCEB436FB2F57C0F70474FEA036CE6
:10232000BCF1004F08BF20F00100B2F57C0F38BFB0
:1023300070470BD582F0FF0212F5803FC8BF70478F
:1023400000F1C040D8BF00F00040704700F5000C1D
:102350005FEA4C0C48BF7047B0F1C04000F073B862
:1023600090EA010F0CEAD11348BF42F48072624533
:1023700038BF634504D280EA010000F00040704796
:1023800010B500F01AF800BF8900013E00F007B850
:1023900000F009B85FEA410C5FEA1C6C08D080EAE3
:1023A000010000F050B85FEA400C5FEA1C6CF6D107
:1023B0004FF00040A0F5800070470EF1020E2EF0A5
:1023C000030E5EF8044B244204D44FEA4102B2F1FA
:1023D0007F4F11D84FEA4003B3F17F4F0CD80ED195
:1023E0004FEAD07CB2F17F4F0CEB4C0C0CF1020C9D
:1023F00008BF4CEBD17C04E04FF0080C01E04FEA41
:10240000D17C0CEB4C0324FA03F404F00704B4F180
:10241000040C06D20EEB840CBDE810404CF0010C0D
:102420006047DFE80CF0070802024FF00040A0F51B
:10243000800010BD0846420018BFD2F1807288BFEC
:1024400000F0004010BDFF2141EAD050C0057047A8
:1024500090EA010F48BF81F000413FF5E0AD421A1C
:1024600004D882F00042A0EB020011444FEAD0529F
:102470004FF07F4C1CEA410FA2EBD15318BF9CEAEE
:10248000026F4AD04FF0004C4CEA00204CEA012188
:1024900021FA03FCB0EB0C0C0FD412F0FE0F36D077
:1024A0005FEA4C001DD5001240EBC25038BF7047A8
:1024B0001CF03F0F18BF70470BE0A2F101025FEA6A
:1024C0001C2040EBC25038BF70471CF07F0F18BF74
:1024D0007047C3F12003994014BF401E20F0010053
:1024E000704780084FEA122308BF7047B0FA80FC9B
:1024F000A2EB0C02CCF1280C60FA0CF093EA122F3C
:1025000004BF00EBC25070474FEAC3707047130A14
:102510005FEADC1008BF7047F6E79CEA026F04D060
:1025200010EA5C0F08BF0020704710B5FFF745FFA9
:1025300040DFF63E81F000407047000303060104CF
:102540000602050003051F1C1F1E1F1E1F1F1E1F46
:102550001E1F344310100134431010017C25000865
:10256000000000204800000028010008C4250008E1
:10257000480000201008000044010008000000008E
:10258000000000000000000000000000000000004B
:10259000000000000000000000000000000000003B
:1025A000000000000000000000000000000000002B
:1025B00000010203040102030406070809020406DD
:0425C000080000000F
:04000005080001915D
:00000001FF
